:020000040800F2
:1000000000000220F95E0008A95C0008B15C00084D
:10001000B95C0008C15C0008C95C00080000000071
:1000200000000000000000000000000081DE000869
:10003000D15C000800000000D1E00008DF5C00088F
:10004000495F0008495F0008495F0008495F0008F0
:10005000495F0008495F0008495F0008495F0008E0
:10006000495F0008495F0008495F0008495F0008D0
:10007000495F0008495F0008495F0008495F0008C0
:10008000F95C00080D5D0008495F0008495F000841
:10009000495F0008495F0008495F0008495F0008A0
:1000A000495F0008495F0008495F0008495F000890
:1000B000495F0008215D0008495F0008495F0008AA
:1000C000495F0008495F0008495F0008495F000870
:1000D000495F0008495F0008355D0008495F000876
:1000E000495F0008495F0008495F0008495F000850
:1000F000495F0008495F0008495F0008495F000840
:10010000495F0008495F0008495F0008495F00082F
:10011000495F0008495F0008495F0008495F00081F
:10012000495F0008495F0008495F0008495F00080F
:10013000495F00080000000000000000495F00085F
:10014000495F0008495F0008495F0008495F0008EF
:10015000495F0008495F0008495F0008495F0008DF
:10016000495F0008495F0008495F0008495F0008CF
:10017000495F0008495F000800000000000000001F
:08018000495F0008495F000817
:1001900010B5054C237833B9044B13B10448AFF3C1
:1001A00000800123237010BD6404002000000000C3
:1001B0004023010808B5034B1BB103490348AFF3C3
:1001C000008008BD000000006804002040230108F2
:1001D00001F0FF01102A2BDB10F0070F08D010F8F8
:1001E000013B013A8B422DD010F0070F42B3F6D1FC
:1001F000F0B441EA012141EA014122F007047FF015
:1002000000070023F0E80256083C85EA010586EA6B
:10021000010685FA47F5A3FA87F586FA47F6A5FAA7
:1002200087F68EB9EED1F0BC01F0FF0102F00702B3
:1002300032B110F8013B013A83EA010313B1F8D15E
:100240000020704701387047002D06BF354603383F
:10025000073815F0010F07D1013015F4807F02BF78
:10026000013015F4C03F0130F0BC0138704700BFC9
:10027000034613F8012B002AFBD1181A01387047E6
:1002800081F0004102E000BF83F0004330B54FEA47
:1002900041044FEA430594EA050F08BF90EA020FB4
:1002A0001FBF54EA000C55EA020C7FEA645C7FEA47
:1002B000655C00F0E2804FEA5454D4EB5555B8BF6A
:1002C0006D420CDD2C4480EA020281EA030382EADB
:1002D000000083EA010180EA020281EA0303362D6D
:1002E00088BF30BD11F0004F4FEA01314FF4801C40
:1002F0004CEA113102D0404261EB410113F0004F52
:100300004FEA03334CEA133302D0524263EB430308
:1003100094EA050F00F0A780A4F10104D5F1200EA6
:100320000DDB02FA0EFC22FA05F2801841F1000101
:1003300003FA0EF2801843FA05F359410EE0A5F1D5
:1003400020050EF1200E012A03FA0EFC28BF4CF006
:10035000020C43FA05F3C01851EBE37101F00045BC
:1003600007D54FF0000EDCF1000C7EEB00006EEBC9
:100370000101B1F5801F1BD3B1F5001F0CD3490853
:100380005FEA30004FEA3C0C04F101044FEA4452AA
:1003900012F5800F80F09A80BCF1004F08BF5FEA31
:1003A000500C50F1000041EB045141EA050130BD11
:1003B0005FEA4C0C404141EB0101013C28BFB1F523
:1003C000801FE9D291F0000F04BF01460020B1FA6E
:1003D00081F308BF2033A3F10B03B3F120020CDA41
:1003E0000C3208DD02F1140CC2F10C0201FA0CF01F
:1003F00021FA02F10CE002F11402D8BFC2F1200C84
:1004000001FA02F120FA0CFCDCBF41EA0C01904039
:10041000E41AA2BF01EB0451294330BD6FEA040482
:100420001F3C1CDA0C340EDC04F11404C4F120026D
:1004300020FA04F001FA02F340EA030021FA04F37F
:1004400045EA030130BDC4F10C04C4F1200220FAD6
:1004500002F001FA04F340EA0300294630BD21FA14
:1004600004F0294630BD94F0000F83F4801306BFDA
:1004700081F480110134013D4EE77FEA645C18BFCE
:100480007FEA655C29D094EA050F08BF90EA020F65
:1004900005D054EA000C04BF1946104630BD91EA5D
:1004A000030F1EBF0021002030BD5FEA545C05D160
:1004B0004000494128BF41F0004130BD14F580049F
:1004C0003CBF01F5801130BD01F0004545F0FE4113
:1004D00041F470014FF0000030BD7FEA645C1ABF48
:1004E000194610467FEA655C1CBF0B46024650EA7F
:1004F000013406BF52EA033591EA030F41F40021AB
:1005000030BD00BF90F0000F04BF0021704730B530
:100510004FF4806404F132044FF000054FF0000105
:1005200050E700BF90F0000F04BF0021704730B5C6
:100530004FF4806404F1320410F0004548BF40429B
:100540004FF000013EE700BF42004FEAE2014FEAF0
:1005500031014FEA02701FBF12F07F4393F07F4FCB
:1005600081F06051704732F07F4208BF704793F0CE
:100570007F4F04BF41F40021704730B54FF46074E1
:1005800001F0004521F000411CE700BF50EA0102E4
:1005900008BF704730B54FF000050AE050EA01028D
:1005A00008BF704730B511F0004502D5404261EBFD
:1005B00041014FF4806404F132045FEA915C3FF43E
:1005C000D8AE4FF003025FEADC0C18BF03325FEADB
:1005D000DC0C18BF033202EBDC02C2F1200300FA8C
:1005E00003FC20FA02F001FA03FE40EA0E0021FAB1
:1005F00002F11444BDE600BF70B54FF0FF0C4CF49F
:10060000E06C1CEA11541DBF1CEA135594EA0C0F50
:1006100095EA0C0F00F0DEF82C4481EA030621EA8B
:100620004C5123EA4C5350EA013518BF52EA0335C6
:1006300041F4801143F4801338D0A0FB02CE4FF078
:100640000005E1FB02E506F00042E0FB03E54FF0A8
:100650000006E1FB03569CF0000F18BF4EF0010EA0
:10066000A4F1FF04B6F5007F64F5407404D25FEA9C
:100670004E0E6D4146EB060642EAC62141EA55514F
:100680004FEAC52040EA5E504FEACE2EB4F1FD0C91
:1006900088BFBCF5E06F1ED8BEF1004F08BF5FEA0F
:1006A000500E50F1000041EB045170BD06F00046C1
:1006B00046EA010140EA020081EA0301B4EB5C046E
:1006C000C2BFD4EB0C0541EA045170BD41F4801166
:1006D0004FF0000E013C00F3AB8014F1360FDEBF8B
:1006E000002001F0004170BDC4F10004203C35DA67
:1006F0000C341BDC04F11404C4F1200500FA05F3EA
:1007000020FA04F001FA05F240EA020001F000428A
:1007100021F0004110EBD37021FA04F642EB060100
:100720005EEA430E08BF20EAD37070BDC4F10C042A
:10073000C4F1200500FA04F320FA05F001FA04F2EE
:1007400040EA020001F0004110EBD37041F10001DA
:100750005EEA430E08BF20EAD37070BDC4F12005E5
:1007600000FA05F24EEA020E20FA04F301FA05F24D
:1007700043EA020321FA04F001F0004121FA04F2F5
:1007800020EA020000EBD3705EEA430E08BF20EAC5
:10079000D37070BD94F0000F0FD101F000464000FF
:1007A00041EB010111F4801F08BF013CF7D041EA81
:1007B000060195F0000F18BF704703F00046520085
:1007C00043EB030313F4801F08BF013DF7D043EA56
:1007D0000603704794EA0C0F0CEA135518BF95EA0C
:1007E0000C0F0CD050EA410618BF52EA4306D1D193
:1007F00081EA030101F000414FF0000070BD50EAB2
:10080000410606BF1046194652EA430619D094EA3B
:100810000C0F02D150EA013613D195EA0C0F05D125
:1008200052EA03361CBF104619460AD181EA030179
:1008300001F0004141F0FE4141F470014FF0000031
:1008400070BD41F0FE4141F4780170BD70B54FF0CC
:10085000FF0C4CF4E06C1CEA11541DBF1CEA13554C
:1008600094EA0C0F95EA0C0F00F0A7F8A4EB05042E
:1008700081EA030E52EA03354FEA013100F0888025
:100880004FEA03334FF0805545EA131343EA1263EE
:100890004FEA022245EA111545EA10654FEA0026A3
:1008A0000EF000419D4208BF964244F1FD0404F55C
:1008B000407402D25B084FEA3202B61A65EB0305B8
:1008C0005B084FEA32024FF480104FF4002CB6EB75
:1008D000020E75EB030E22BFB61A754640EA0C00F5
:1008E0005B084FEA3202B6EB020E75EB030E22BF35
:1008F000B61A754640EA5C005B084FEA3202B6EB76
:10090000020E75EB030E22BFB61A754640EA9C0034
:100910005B084FEA3202B6EB020E75EB030E22BF04
:10092000B61A754640EADC0055EA060E18D04FEAC2
:10093000051545EA16754FEA06164FEAC30343EA62
:1009400052734FEAC2025FEA1C1CC0D111F4801F2F
:100950000BD141EA00014FF000004FF0004CB6E728
:1009600011F4801F04BF01430020B4F1FD0C88BFC7
:10097000BCF5E06F3FF6AFAEB5EB030C04BFB6EBD2
:10098000020C5FEA500C50F1000041EB045170BDC5
:100990000EF0004E4EEA113114EB5C04C2BFD4EBF2
:1009A0000C0541EA045170BD41F480114FF0000E76
:1009B000013C90E645EA060E8DE60CEA135594EAF2
:1009C0000C0F08BF95EA0C0F3FF43BAF94EA0C0FF5
:1009D0000AD150EA01347FF434AF95EA0C0F7FF46A
:1009E00025AF104619462CE795EA0C0F06D152EABE
:1009F00003353FF4FDAE1046194622E750EA4106A2
:100A000018BF52EA43067FF4C5AE50EA41047FF4B2
:100A10000DAF52EA43057FF4EBAE12E74FF0FF3C17
:100A200006E000BF4FF0010C02E000BF4FF0010CE8
:100A30004DF804CD4FEA410C7FEA6C5C4FEA430C61
:100A400018BF7FEA6C5C1BD001B050EA410C0CBFB0
:100A500052EA430C91EA030F02BF90EA020F002012
:100A6000704710F1000F91EA030F58BF994208BF79
:100A700090422CBFD8176FEAE37040F00100704736
:100A80004FEA410C7FEA6C5C02D150EA013C07D18D
:100A90004FEA430C7FEA6C5CD6D152EA033CD3D0D8
:100AA0005DF8040B704700BF8446104662468C46D2
:100AB0001946634600E000BF01B5FFF7B7FF002805
:100AC00048BF10F1000F01BD4DF808EDFFF7F4FF2E
:100AD0000CBF012000205DF808FB00BF4DF808EDB9
:100AE000FFF7EAFF34BF012000205DF808FB00BFDC
:100AF0004DF808EDFFF7E0FF94BF012000205DF8FE
:100B000008FB00BF4DF808EDFFF7CEFF94BF0120B2
:100B100000205DF808FB00BF4DF808EDFFF7C4FFAB
:100B200034BF012000205DF808FB00BF4FEA410CF4
:100B30007FEA6C5C02D150EA013C0AD14FEA430CD7
:100B40007FEA6C5C02D152EA033C02D14FF0000014
:100B500070474FF0010070474FEA410212F5001252
:100B600015D211D56FF47873B3EB625212D94FEAF4
:100B7000C12343F0004343EA505311F0004F23FADE
:100B800002F018BF404270474FF00000704750EA33
:100B9000013005D111F0004008BF6FF000407047F0
:100BA0004FF00000704700BF4FEA4102B2F1E0434E
:100BB00024BFB3F5001CDCF1FE5C0DD901F0004C44
:100BC0004FEAC0024CEA5070B2F1004F40EB830094
:100BD00008BF20F00100704711F0804F21D113F1C0
:100BE0003872BCBF01F00040704741F480114FEAF9
:100BF0005252C2F11802C2F1200C10FA0CF320FA82
:100C000002F018BF40F001004FEAC1234FEAD3239E
:100C100003FA0CFC40EA0C0023FA02F34FEA430308
:100C2000CCE77FEA625307D150EA01331EBF4FF091
:100C3000FE4040F44000704701F0004040F0FE40AC
:100C400040F40000704700BF53B94AB9002908BFFB
:100C500000281CBF4FF0FF314FF0FF3000F06AB9A1
:100C6000ADF1080C6DE904CE00F006F8DDF804E003
:100C7000DDE9022304B070472DE9F047089D0C46DA
:100C8000002B4ED194468C458646B2FA82F262D948
:100C90004AB1C2F12003914020FA03F30CFA02FC9E
:100CA000194300FA02FE4FEA1C471FFA8CF6B1FB0B
:100CB000F7F44FEA1E4307FB141143EA014304FB18
:100CC00006F199420AD91CEB030304F1FF3080F0CE
:100CD0001281994240F20F81023C6344591A1FFA73
:100CE0008EF3B1FBF7F007FB101143EA014300FB61
:100CF00006F69E420AD91CEB030300F1FF3180F097
:100D0000FC809E4240F2F980634402389B1B40EA1B
:100D1000044000211DB1D3400022C5E90032BDE8E6
:100D2000F0878B4205D90DB1C5E9000100210846C5
:100D3000F5E7B3FA83F1002946D1A34202D39042EA
:100D4000C0F0F080861A64EB03030120002DE6D08A
:100D5000C5E90063E3E7002A40F09080A1EB0C04B2
:100D60004FEA1C481FFA8CF70121B4FBF8F64FEA52
:100D70001E4308FB164443EA044307FB06F098426F
:100D800008D91CEB030306F1FF3402D2984200F2AB
:100D9000CD8026461C1A1FFA8EF3B4FBF8F008FB30
:100DA000104443EA044300FB07F79F4208D91CEBB9
:100DB000030300F1FF3402D29F4200F2B0802046CC
:100DC000DB1B40EA0640A5E7C1F120068B4022FA72
:100DD00006F71F4320FA06FC04FA01F343EA0C036A
:100DE000F44000FA01F8380C4FEA1349B4FBF0FE66
:100DF0001FFA87FC00FB1E4449EA04440EFB0CF971
:100E0000A14502FA01F20AD93C190EF1FF3A80F02D
:100E10008480A14540F28180AEF1020E3C44A4EBF7
:100E200009041FFA83F9B4FBF0F300FB134449EA09
:100E3000044403FB0CFCA44507D93C1903F1FF3023
:100E400067D2A44565D9023B3C4443EA0E40A0FB6F
:100E50000293A4EB0C049C42CE469C4651D34ED048
:100E600055B1B8EB0E0364EB0C0404FA06F6CB4064
:100E70001E43CC40C5E90064002150E7C2F12003C5
:100E800020FA03F10CFA02FC24FA03F394400C4319
:100E90004FEA1C4800FA02FE1FFA8CF7B3FBF8F089
:100EA00008FB1031230C43EA014300FB07F1994290
:100EB00008D91CEB030300F1FF362CD299422AD942
:100EC000023863445B1AA4B2B3FBF8F108FB113398
:100ED00044EA034401FB07F3A34208D91CEB0404D2
:100EE00001F1FF3613D2A34211D902396444E41A46
:100EF00041EA004139E70446F0E6084606E7C845FE
:100F0000AED2B9EB020E63EB070C0138A8E731460D
:100F1000EDE7034699E73046D4E7D6467FE76344DA
:100F200002384DE70646234608460FE7023E634473
:100F300030E700BF704700BF90B587B000AF786062
:100F40009FED1E0A03F0FCFFF0EE406AB0EE607AFF
:100F5000F0EE417AC7ED036A87ED047AC7ED057AB2
:100F6000174B1B684FF0FF3118460BF027F903466B
:100F7000002B1FD0134B1C4607F10C0393E807000E
:100F800084E807000F4BD3ED017A0E4B93ED007A06
:100F90000C4BD3ED026AB0EE661AF0EE470AB0EEE3
:100FA000670A03F0A9FA064B186800230022002103
:100FB0000AF082FE14200BF03DFDC1E70AD7A33CE6
:100FC0009C0400208004002090B587B000AF7860BA
:100FD0009FED1B0B04F034FBF0EE406AB0EE607A3C
:100FE000F0EE417AC7ED036A87ED047AC7ED057A22
:100FF000154B1B684FF0FF3118460BF0DFF8034626
:10100000002B18D0114B1C4607F10C0393E8070086
:1010100084E80700D7ED057AB0EE671ADFED0C0A19
:101020009FED0B0A03F096FA074B18680023002285
:1010300000210AF041FE14200BF0FCFCC8E700BFC1
:1010400000000040E17A943FA00400208C040020BE
:101050000000000000000000B0B592B002AF786060
:101060006F4B1B684FF0FF3118460BF0A7F8034693
:10107000002B00F0CB806B4B9B681846FFF764FA9F
:1010800004460D46684B1B681846FFF75DFA62A3DD
:10109000D3E90023FFF7B0FA02460B461046194683
:1010A0004FF00002614BFFF7D1FB02460B4643ECC9
:1010B000172BB0EE470AF0EE670A0FF04DFF51EC28
:1010C000100B4FF000025A4BFFF796FA02460B4600
:1010D00020462946FFF7D8F802460B4614461D461F
:1010E000544B1B681846FFF72FFA02460B46204662
:1010F0002946FFF7C9F802460B4610461946FFF786
:1011000053FD03464C4A1360464B93ED027A494B1C
:10111000D3ED007A77EE677A484BC3ED007A464B01
:10112000D3ED007ADFED460AB0EE670A454801F0DC
:10113000CFF8F0EE407A444BC3ED007A3F4BD3ED4D
:10114000007ADFED3F0AB0EE670A3E4801F0C0F8D2
:10115000F0EE407A3D4BC3ED007A4FF000033B6266
:101160004FF000037B62384B1B68BB624FF00003FB
:10117000FB624FF000033B634FF000037B634FF0D3
:101180000003BB604FF00003FB60304B1B683B610A
:101190004FF000037B614FF00003BB614FF0000391
:1011A000FB612B4BD3ED007A07F12001294B019312
:1011B000294B00930523294AB0EE670A284800F01E
:1011C000FAFFF863224BD3ED007A07F10801254BB3
:1011D0000193214B00930523204AB0EE670A224871
:1011E00000F0E9FFB863FA6BBB6B1343002B0DD122
:1011F000184BB3F908301946042003F0CBFC194B07
:10120000B3F90A301946052003F0C4FC64200BF042
:1012100011FC25E7AFF30080182D4454FB21094051
:10122000A00400208C040020800400200080664080
:101230000000494098040020AC040020B0040020C5
:101240000AD7A33C00000020A4040020A80400202A
:101250008802002068020020C406002078010020D7
:101260005C050020780200200406002080B582B0D2
:1012700002AF214B4FF000021A60204A204921485A
:1012800000F05AF8204A1E49204800F055F8204A3C
:101290001B49204800F050F801200AF0F4FC0346F6
:1012A0001D4A136001200AF0EEFC03461B4A13603E
:1012B000002301931823009300234FF40072184970
:1012C00018480BF071FA00230193182300930023B0
:1012D0004FF4C072144915480BF066FA00230193CD
:1012E0001823009300234FF4C072114911480BF0EA
:1012F0005BFA00BFBD4680BD98040020D0000020EE
:10130000280000205C0500202401002004060020A5
:101310007C000020B40400209C040020A0040020D5
:1013200058230108390F00085C230108C90F000881
:10133000602301085910000880B48DB000AFF86038
:10134000B9607A600023FB62AEE0FA6A13465B0084
:1013500013449B001A467B6813441A68F968FB6AB9
:101360009B000B441A60FA6A13465B0013449B000F
:101370001A467B681344FA6802F11C015A68FB6A3A
:101380009B000B441A60FA6A13465B0013449B00EF
:101390001A467B681344FA6802F138019A68FB6ABE
:1013A0009B000B441A60FA6A13465B0013449B00CF
:1013B0001A46BB6813441B68BB62FA6A13465B009B
:1013C00013449B001A46BB6813445B687B62FA6A4D
:1013D00013465B0013449B001A46BB6813449B688A
:1013E0003B62FA6A13465B0013449B001A467B6813
:1013F00013441B68FB61FA6A13465B0013449B00AD
:101400001A467B6813445B68BB61FA6A13465B004B
:1014100013449B001A467B6813449B687B6197EDDD
:10142000097AD7ED057A27EE277AD7ED086AD7ED46
:10143000067A66EEA77AFB6803F1540277EE677AC4
:10144000FB6A9B001344C3ED007A97ED087AD7ED51
:10145000077A27EE277AD7ED0A6AD7ED057A66EE86
:10146000A77AFB6803F1700277EE677AFB6A9B004C
:101470001344C3ED007A97ED0A7AD7ED067A27EE8A
:10148000277AD7ED096AD7ED077A66EEA77AFB6867
:1014900003F18C0277EE677AFB6A9B001344C3ED7D
:1014A000007AFB6A0133FB62FB6A062B7FF74DAFC4
:1014B00000BF00BF3437BD465DF8047B704790B570
:1014C000D1B000AF07F5A074A4F59A74206007F5B9
:1014D000A070A0F59C70016007F5A071A1F59E7148
:1014E0000A6007F5A072A2F5A07213600023C7F886
:1014F0003C3116E0D7F83C319B0007F5A072A2F50D
:101500009C72126813441A68D7F83C319B0003F5AB
:10151000A0733B44F43B1A60D7F83C310133C7F861
:101520003C3107F5A073A3F59A731B6803FB03F323
:10153000D7F83C219A42DDDB0023C7F8383117E0A9
:10154000D7F838319B0007F5A072A2F59E72126899
:1015500013441A6807F5A073A3F58871D7F83831DA
:101560009B000B441A60D7F838310133C7F8383183
:1015700007F5A073A3F59A73D7F838211B689A4230
:10158000DEDB0023C7F83431B9E00023C7F830317F
:10159000A9E007F5A073A3F59A72D7F83431126861
:1015A00003FB02F2D7F8303113449B0003F5A0731C
:1015B0003B44F43B1B68C7F82C310023C7F82831A3
:1015C00032E007F5A073A3F59A72D7F834311268A8
:1015D00003FB02F2D7F8283113449B0003F5A073F4
:1015E0003B44F43B93ED007A07F5A073A3F59A72A0
:1015F000D7F83031126803FB02F2D7F828311344D0
:101600009B0003F5A0733B44F43BD3ED007A67EEF7
:10161000277A97ED4B7A77EE677AC7ED4B7AD7F852
:1016200028310133C7F82831D7F82821D7F83031CD
:101630009A42C6DBD7F83421D7F830319A4223D109
:10164000D7ED4B7AF5EEC07AF1EE10FA02D84FF0F2
:10165000FF334AE107F5A073A3F59A72D7F8343146
:10166000126803FB02F2D7F83431D41897ED4B0A15
:101670000FF0C8FCF0EE407AA30003F5A0733B44E2
:10168000F43BC3ED007A29E007F5A073A3F59A7245
:10169000D7F83031126803FB02F2D7F83031134427
:1016A0009B0003F5A0733B44F43B93ED007A07F5F0
:1016B000A073A3F59A72D7F83431126803FB02F2D3
:1016C000D7F830311344D7ED4B6AC6EE877A9B00CA
:1016D00003F5A0733B44F43BC3ED007AD7F83031F7
:1016E0000133C7F83031D7F83021D7F834319A4276
:1016F0007FF74FAFD7F834310133C7F8343107F5EE
:10170000A073A3F59A73D7F834211B689A42FFF6A9
:101710003CAF0023C7F8243164E007F5A073A3F5BC
:101720008872D7F824319B0013441B68C7F8203116
:101730000023C7F81C3129E007F5A073A3F59A72BE
:10174000D7F82431126803FB02F2D7F81C31134496
:101750009B0003F5A0733B44F43B93ED007A07F53F
:10176000A073A3F59672D7F81C319B001344D3EDF8
:10177000007A67EE277A97ED487A77EE677AC7EDB9
:10178000487AD7F81C310133C7F81C31D7F81C212F
:10179000D7F824319A42CFDB07F5A073A3F59A72EC
:1017A000D7F82431126803FB02F2D7F8243113442E
:1017B0009B0003F5A0733B44F43B93ED007AD7ED17
:1017C000486AC6EE877A07F5A073A3F59672D7F834
:1017D00024319B001344C3ED007AD7F82431013340
:1017E000C7F8243107F5A073A3F59A73D7F824211D
:1017F0001B689A4291DB07F5A073A3F59A731B68E7
:10180000013BC7F818316BE007F5A073A3F596729A
:10181000D7F818319B0013441B68C7F81431D7F868
:1018200018310133C7F810312AE007F5A073A3F58A
:101830009A72D7F81031126803FB02F2D7F8183108
:1018400013449B0003F5A0733B44F43B93ED007AF3
:10185000D7F810319B0007F5A072A2F5A0721268AC
:101860001344D3ED007A67EE277A97ED457A77EE49
:10187000677AC7ED457AD7F810310133C7F81031D0
:1018800007F5A073A3F59A73D7F810211B689A4245
:10189000CBDB07F5A073A3F59A72D7F8183112685D
:1018A00003FB02F2D7F8183113449B0003F5A07331
:1018B0003B44F43B93ED007AD7F818319B0007F5D1
:1018C000A072A2F5A07212681344D7ED456AC6EE65
:1018D000877AC3ED007AD7F81831013BC7F8183181
:1018E000D7F81831002B8FDA0023184607F5A277B6
:1018F000BD4690BD80B48DB000AFF860B9607A602D
:101900003B600023FB6209E0FB6A9B007A6813449A
:101910004FF000021A60FB6A0133FB62FB6A302B56
:10192000F2DD0023BB6209E0BB6A9B003A68134406
:101930004FF000021A60BB6A0133BB62BB6A062B20
:10194000F2DD00237B6271E000233B623BE04FF05D
:101950000003FB610023BB6124E0BA691346DB008E
:101960009B1A9B001A46FB681A447B6A9B0013442F
:1019700093ED007ABA691346DB009B1A9B001A4666
:10198000FB681A443B6A9B001344D3ED007A67EE70
:10199000277A97ED077A77EE277AC7ED077ABB6942
:1019A0000133BB61BB69052BD7DD7A6A1346DB00C7
:1019B0009A1A3B6A13449B007A681344FA691A60C6
:1019C0003B6A01333B623B6A062BC0DD4FF00003EC
:1019D0007B6100233B611DE03A691346DB009B1AE3
:1019E0009B001A46FB681A447B6A9B00134493EDE4
:1019F000007A3B699B00BA681344D3ED007A67EE26
:101A0000277A97ED057A77EE277AC7ED057A3B6955
:101A100001333B613B69052BDEDD7B6A9B003A6845
:101A200013447A691A607B6A01337B627B6A062BF6
:101A30008ADD00BF00BF3437BD465DF8047B7047C8
:101A400080B5BEB000AFF860B96087ED010A3A60BA
:101A500007F1100307F12C02B968F868FFF74AFF95
:101A6000D7ED017A67EEA77AC7ED3C7A0023C7F875
:101A7000F4301AE0D7F8F430DB009B00F8333B4435
:101A8000CC3B93ED007AD7F8F430DB00D7ED3C7A0D
:101A900077EE277A9B00F8333B44CC3BC3ED007ACA
:101AA000D7F8F4300133C7F8F430D7F8F430062B08
:101AB000E0DD07F1100207F12C013B680720FFF77A
:101AC000FEFC03461846F837BD4680BD90B5EFB022
:101AD00000AF07F5DC74A4F5D274206007F5DC7064
:101AE000A0F5D470016007F5DC71A1F5D67181ED28
:101AF000000A07F5DC71A1F5D8710A6007F5DC7200
:101B0000A2F5DA72136007F5DC73A3F5D67007F55A
:101B1000DC73A3F5D47107F5DC73A3F5D273D7F8A2
:101B2000CC2190ED000A09681868FFF789FF034689
:101B3000002B02D04FF0FF33B7E20023C7F84C313F
:101B400007F5A87300210A461A800A469A700023F6
:101B5000C7F8B4319DE20023C7F8B0310023C7F8BD
:101B6000AC310023C7F8A8318EE0D7F8A8319B002C
:101B7000D7F8CC2113441B68C7F85C3107F5DC7338
:101B8000A3F5D8731B68002B0AD0D7F8A8319B00A7
:101B900007F5DC72A2F5D872126813441B6800E0E6
:101BA000DB4BC7F8583107F5DC73A3F5DA731B6814
:101BB000002B0AD0D7F8A8319B0007F5DC72A2F5FC
:101BC000DA72126813441B6801E04FF0FF43C7F854
:101BD000543197ED577AD7ED567AB4EEE77AF1EEB5
:101BE00010FA1BD5D7F8A8319B00D7F8CC211344A5
:101BF000D7F858211A6007F5A672D7F8A831134410
:101C00001B78002B2ED107F5A672D7F8A831134404
:101C100001221A700123C7F8B03123E097ED577AFB
:101C2000D7ED557AB4EEE77AF1EE10FA1ADDD7F86F
:101C3000A8319B00D7F8CC211344D7F854211A605F
:101C400007F5A672D7F8A83113441B78002B09D1E9
:101C500007F5A672D7F8A831134401221A700123A0
:101C6000C7F8B03107F5A672D7F8A83113441B782E
:101C7000002B04D0D7F8AC310133C7F8AC31D7F81A
:101C8000A8310133C7F8A831D7F8A831062B7FF760
:101C90006CAFD7F8B031002B00F00382D7F8AC312D
:101CA000062B00F300820023C7F8A43152E0D7F8D6
:101CB000A4319B0007F5DC72A2F5D47212681344BC
:101CC0001B68C7F8A0310023C7F89C312FE007F547
:101CD000A672D7F89C3113441B78002B22D0D7F87A
:101CE000A4211346DB009B1A9B001A4607F5DC7300
:101CF000A3F5D2731B681A44D7F89C319B00134498
:101D000093ED007AD7F89C319B00D7F8CC2113448F
:101D1000D3ED007A67EE277A97ED687A77EE677AE7
:101D2000C7ED687AD7F89C310133C7F89C31D7F8F2
:101D30009C31062BCBDDD7F8A4319B0003F5DC7377
:101D40003B44843BD7F8A0211A60D7F8A431013373
:101D5000C7F8A431D7F8A431052BA8DD0023C7F8B4
:101D600098310023C7F8943119E007F5A672D7F827
:101D7000943113441B78002B0CD1D7F898315A1C9E
:101D8000C7F898219B0003F5DC733B44D7F89421F6
:101D900043F8A02CD7F894310133C7F89431D7F821
:101DA0009431062BE1DD0023C7F890310FE007F5F1
:101DB000DC73A3F5CE72D7F890319B0013444FF03B
:101DC00000021A60D7F890310133C7F89031D7F884
:101DD000983103FB03F3D7F890219A42E7DB002305
:101DE000C7F88C310EE0D7F88C319B0003F5DC731B
:101DF0003B44BC3B4FF000021A60D7F88C310133F2
:101E0000C7F88C31D7F88C21D7F898319A42EADBA1
:101E10000023C7F88831B9E0D7F888319B0003F573
:101E2000DC733B4453F8A03CC7F864310023C7F887
:101E300084315FE0D7F884319B0003F5DC733B44C9
:101E400053F8A03CC7F860314FF00003C7F8803169
:101E50000023C7F87C3132E0D7F87C211346DB0041
:101E60009B1A9B001A4607F5DC73A3F5D2731B6817
:101E70001A44D7F864319B00134493ED007AD7F8E5
:101E80007C211346DB009B1A9B001A4607F5DC7386
:101E9000A3F5D2731B681A44D7F860319B00134432
:101EA000D3ED007A67EE277A97ED607A77EE277A9E
:101EB000C7ED607AD7F87C310133C7F87C31D7F8A9
:101EC0007C31052BC8DDD7F88831D7F8982103FB82
:101ED00002F2D7F88431134407F5DC72A2F5CE7212
:101EE0009B001344D7F880211A60D7F8843101335E
:101EF000C7F88431D7F88421D7F898319A4299DB12
:101F00004FF00003C7F878310023C7F874312AE096
:101F1000000080FFD7F874211346DB009B1A9B005A
:101F20001A4607F5DC73A3F5D2731B681A44D7F879
:101F300064319B00134493ED007AD7F874319B0011
:101F400003F5DC733B44843BD3ED007A67EE277ADC
:101F500097ED5E7A77EE277AC7ED5E7AD7F874311F
:101F60000133C7F87431D7F87431052BD2DDD7F8B7
:101F700088319B0003F5DC733B44BC3BD7F87821E8
:101F80001A60D7F888310133C7F88831D7F888212B
:101F9000D7F898319A42FFF63FAF07F5DC73A3F507
:101FA000D673D3ED007A67EEA77AC7ED5A7A00238D
:101FB000C7F870312AE0D7F87031D7F8982103FBC1
:101FC00002F2D7F87031134407F5DC72A2F5CE7235
:101FD0009B00134493ED007AD7F87031D7F898211D
:101FE00003FB02F2D7F870311344D7ED5A7A77EE3B
:101FF000277A07F5DC72A2F5CE729B001344C3ED7D
:10200000007AD7F870310133C7F87031D7F87021F2
:10201000D7F898319A42CEDBD7F89831002B33DDD0
:1020200007F1E00307F1FC0207F11C01D7F8980162
:10203000FFF745FA0346002B02D04FF0FF3334E0A0
:102040000023C7F86C3119E0D7F86C319B0003F519
:10205000DC733B4453F8A03C9B00D7F8CC211344DD
:10206000D7F86C21920002F5DC723A44D83A126833
:102070001A60D7F86C310133C7F86C31D7F86C218E
:10208000D7F898319A42DFDBD7F8B4310133C7F87B
:10209000B431D7F8B421D7F8C8319A42FFF65BAD16
:1020A00002E000BF00E000BF0023184607F5DE771E
:1020B000BD4690BD80B485B000AF786087ED000A62
:1020C0007B68D3ED007A97ED007AB4EEE77AF1EE13
:1020D00010FA02D57B681B683B607B68D3ED017A00
:1020E00097ED007AB4EEE77AF1EE10FA02DD7B6844
:1020F0005B683B607B6893ED047AD7ED007A27EE4E
:10210000277A7B68D3ED057A77EE277AC7ED037AD5
:102110007B68D3ED027A97ED037AB4EEE77AF1EEBD
:1021200010FA02D57B689B68FB607B68D3ED037A6D
:1021300097ED037AB4EEE77AF1EE10FA02DD7B68F0
:10214000DB68FB60FB6807EE903AB0EE670A143775
:10215000BD465DF8047B704780B586B000AFF8607F
:10216000B9607A6000237B611DE07B695B01BA681E
:10217000D1187B699B00FA681344D3ED007AB0EE66
:10218000670A0846FFF796FFF0EE407A7B695B002E
:102190007A681344FDEEE77A17EE902A12B21A809D
:1021A0007B6901337B617B69062BDEDD00BF00BFED
:1021B0001837BD4680BD80B598B002AF78613961EF
:1021C00087ED030ABA607B6000237B6518E07B6DB6
:1021D0005B01BA6813441A687B6D9B0058333B441B
:1021E000243B1A607B6D5B01BA6813445A687B6DAF
:1021F0009B0058333B44403B1A607B6D01337B6549
:102200007B6D062BE3DD07F1180107F134023B6E0D
:1022100001937B6800930B4697ED030A396978694F
:10222000FFF754FC38653B6D002B01D03B6D05E09A
:102230007A6EB968386EFFF78FFF0023184658375B
:10224000BD4680BD80B485B000AF786039600023A2
:10225000FB6009E0FB689B007A6813444FF00002C2
:102260001A60FB680133FB60FA683B689A42F1DB55
:1022700000BF00BF1437BD465DF8047B704780B4D3
:1022800085B000AF87ED030AC7ED020A87ED011A9A
:1022900097ED037AD7ED027AB4EEE77AF1EE10FA11
:1022A00001D5BB680BE097ED037AD7ED017AB4EE68
:1022B000E77AF1EE10FA01DD7B6800E0FB6807EEDB
:1022C000903AB0EE670A1437BD465DF8047B70475C
:1022D00080B58AB000AFF86087ED020AC7ED010A49
:1022E000FB68D3ED007A97ED027A67EE277AC7EDA7
:1022F000097AFB6893ED037AFB68D3ED016AD7EDA9
:10230000027A66EEA76AD7ED017A66EEA77A77EED3
:10231000277AFB68C3ED037AFB68D3ED047A97ED67
:10232000027A77EE676A97ED017AC6EE877AC7ED93
:10233000087AFB6893ED057AFB68D3ED066AFB68C3
:10234000D3ED057A97ED086A76EE677A66EEA77A9E
:1023500077EE277AFB68C3ED057AFB6893ED027A86
:10236000FB68D3ED057A67EE277AC7ED077AFB683D
:1023700093ED037AD7ED097A77EE277A97ED077A0E
:1023800077EE277AC7ED067AFB68D3ED077AFB680C
:1023900093ED087AB0EE471AF0EE670A97ED060A59
:1023A000FFF76DFF87ED050AFB6893ED037AFB6885
:1023B000D3ED096A97ED056AD7ED067A76EE677A6E
:1023C00066EEA77A77EE277AFB68C3ED037AFB689F
:1023D000BA681A617B6907EE903AB0EE670A28374F
:1023E000BD4680BD80B483B000AF78607B681B6859
:1023F000094A934202D1094B01221A707B681B687B
:10240000074A934202D1074B01221A7000BF0C37D2
:10241000BD465DF8047B704700040040B909002008
:1024200000100040B809002080B500AF03F08EFD19
:1024300000F064F800F0C2FB00F098FB00F02CF90B
:1024400000F0B2FA00F068FB00F0F0F800F0E8F9F4
:1024500000F05CFA00F0BCF809F0D6F81F4A002141
:102460001F4809F01BF903461E4A136009F0F0F8F3
:1024700002F0FCF801221C49002002F05BF9022264
:102480001949012002F056F903221749022002F0EF
:1024900051F904221449032002F04CF90122134996
:1024A000042002F047F902221049052002F042F907
:1024B000FF2002F0A3FA012201210D4801F08EFF56
:1024C00001F0A6FF02F010FD0A490B4802F034FFAC
:1024D00002F048FFFEF7CAFE00BFFDE78C230108AB
:1024E000292C0008B40900208C0700206408002073
:1024F000AC080020D40700203407002080B594B039
:1025000000AF07F120033022002118460CF001FE35
:1025100007F10C0300221A605A609A60DA601A61AF
:102520000023BB60284B1B6C274A43F08053136485
:10253000254B1B6C03F08053BB60BB6800237B60A2
:10254000224B1B68214A43F4804313601F4B1B68D6
:1025500003F480437B607B6802233B620123FB62C0
:1025600010233B630223BB630023FB6308233B640C
:1025700054237B640223BB640423FB6407F1200320
:10258000184605F03DFC0346002B01D000F054FB3B
:102590000F23FB6002233B6100237B614FF48053D8
:1025A000BB614FF48053FB6107F10C030221184615
:1025B00005F09EFE0346002B01D000F03DFB00BF5E
:1025C0005037BD4680BD00BF00380240007000405B
:1025D00080B500AF124B134A1A60114B124A5A6071
:1025E0000F4B00229A600E4B0022DA600C4B4FF426
:1025F00080421A610A4B00225A61094B00229A61FB
:10260000074B0022DA61064B80221A62044804F06C
:10261000E3FB0346002B01D000F00EFB00BF80BDA2
:10262000E006002000540040A086010080B500AF05
:10263000174B184A1A60164B4FF482725A60144BAB
:1026400000229A60124B0022DA60114B00221A61BC
:102650000F4B00225A610E4B4FF400729A610C4BE3
:102660003022DA610A4B00221A62094B00225A62B8
:10267000074B00229A62064B0A22DA62044806F0EF
:1026800017F80346002B01D000F0D6FA00BF80BD3A
:10269000340700200030014080B596B000AF07F14C
:1026A000480300221A605A609A60DA6007F140031A
:1026B00000221A605A6007F1240300221A605A604F
:1026C0009A60DA601A615A619A613B1D20220021EA
:1026D00018460CF01EFD504B504A1A604E4B5322C8
:1026E0005A604D4B00229A604B4B44F61F62DA60F1
:1026F000494B00221A61484B00225A61464B002286
:102700009A61454806F0A6FD0346002B01D000F073
:1027100093FA4FF48053BB6407F1480319463E48CF
:1027200007F02AF90346002B01D000F085FA3A4859
:1027300006F0DFFD0346002B01D000F07DFA0023F8
:102740003B6400237B6407F140031946324807F0DD
:102750001FFD0346002B01D000F06EFA60237B6260
:102760000023BB620023FB6200233B6300237B63E7
:102770000023BB630023FB6307F1240300221946F7
:10278000254807F037F80346002B01D000F054FA33
:1027900007F12403042219461F4807F02BF80346CB
:1027A000002B01D000F048FA07F124030822194653
:1027B000194807F01FF80346002B01D000F03CFA3F
:1027C00007F124030C221946134807F013F80346B7
:1027D000002B01D000F030FA00237B600023BB60A7
:1027E0000023FB6000233B6100237B614FF4005317
:1027F000BB6100233B623B1D1946074807F044FDBF
:102800000346002B01D000F017FA034803F00CF93F
:1028100000BF5837BD4680BD8C0700200000014036
:1028200080B58EB000AF07F1280300221A605A600D
:102830009A60DA6007F1200300221A605A603B1D9B
:1028400000221A605A609A60DA601A615A619A61CD
:102850002D4B4FF080421A602B4B00225A602A4BBE
:1028600000229A60284B4FF42462DA60264B002243
:102870001A61254B00229A61234806F0EBFC0346BF
:10288000002B01D000F0D8F94FF48053BB6207F160
:10289000280319461C4807F06FF80346002B01D0A7
:1028A00000F0CAF9184806F024FD0346002B01D0B9
:1028B00000F0C2F900233B6200237B6207F1200392
:1028C0001946114807F064FC0346002B01D000F0C4
:1028D000B3F960237B604FF4A463BB600023FB600B
:1028E00000237B613B1D00221946074806F082FF4A
:1028F0000346002B01D000F09FF9034803F094F841
:1029000000BF3837BD4680BDD407002080B586B0F3
:1029100000AF07F1080300221A605A609A60DA607B
:102920003B4600221A605A601D4B1E4A1A601C4B1F
:1029300042F2CF025A601A4B00229A60184B63226F
:10294000DA60174B00221A61154B00229A61144875
:1029500006F080FC0346002B01D000F06DF94FF427
:102960008053BB6007F1080319460D4807F004F8CF
:102970000346002B01D000F05FF900233B600023E9
:102980007B603B461946064807F002FC0346002BD5
:1029900001D000F051F900BF1837BD4680BD00BF1F
:1029A0001C0800200004004080B596B000AF07F17D
:1029B000480300221A605A609A60DA6007F1400307
:1029C00000221A605A6007F1240300221A605A603C
:1029D0009A60DA601A615A619A613B1D20220021D7
:1029E00018460CF096FB4A4B4A4A1A60484B532251
:1029F0005A60474B00229A60454B44F61F62DA60EA
:102A0000434B00221A61424B00225A61404B002284
:102A10009A613F4806F01EFC0346002B01D000F0EF
:102A20000BF94FF48053BB6407F14803194638484B
:102A300006F0A2FF0346002B01D000F0FDF8344859
:102A400006F057FC0346002B01D000F0F5F80023F8
:102A50003B6400237B6407F1400319462C4807F0D0
:102A600097FB0346002B01D000F0E6F860237B6261
:102A70000023BB620023FB6200233B6300237B63D4
:102A80000023BB630023FB6307F1240300221946E4
:102A90001F4806F0AFFE0346002B01D000F0CCF833
:102AA00007F1240304221946194806F0A3FE034641
:102AB000002B01D000F0C0F807F1240308221946CA
:102AC000134806F097FE0346002B01D000F0B4F83F
:102AD00000237B600023BB600023FB6000233B617D
:102AE00000237B614FF40053BB6100233B623B1D1D
:102AF0001946074807F0C8FB0346002B01D000F039
:102B00009BF8034802F090FF00BF5837BD4680BDD8
:102B1000640800200004014080B500AF114B124A48
:102B20001A60104B4FF4E1325A600E4B00229A604B
:102B30000C4B0022DA600B4B00221A61094B0C226D
:102B40005A61084B00229A61064B0022DA6105485F
:102B500007F000FC0346002B01D000F06DF800BF29
:102B600080BD00BFAC0800200044004080B582B0AA
:102B700000AF00237B60104B1B6B0F4A43F4001324
:102B800013630D4B1B6B03F400137B607B68002207
:102B90000521102003F04BFB102003F064FB002202
:102BA0000521112003F043FB112003F05CFB00BF63
:102BB0000837BD4680BD00BF0038024080B485B0F4
:102BC00000AF0023FB60174B1B6B164A43F0010359
:102BD0001363144B1B6B03F00103FB60FB680023C2
:102BE000BB60104B1B6B0F4A43F0040313630D4B88
:102BF0001B6B03F00403BB60BB6800237B60094BC5
:102C00001B6B084A43F002031363064B1B6B03F074
:102C100002037B607B6800BF1437BD465DF8047B10
:102C2000704700BF0038024080B582B000AF7860C6
:102C3000012008F0C5FDFBE780B400AF72B600BF0D
:102C400000BFFDE780B485B000AF03463960FB717B
:102C50003B681B88DAB2FB795340FB73FB7B1B019B
:102C60005AB297F90F3053405BB2FB733B681B8835
:102C70001B0A9BB21AB2FB7B1B021BB253401AB257
:102C8000FB7BDB001BB253401AB2FB7B1B09DBB2A0
:102C90001BB253401BB29AB23B681A8000BF143774
:102CA000BD465DF8047B704780B483B000AF7860A8
:102CB0007B684FF6FF721A8000BF0C37BD465DF887
:102CC000047B704780B584B000AF78600B467B8092
:102CD00007F10E031846FFF7E7FF09E07B685A1C6F
:102CE0007A601B7807F10E0211461846FFF7AAFF1B
:102CF0007B885A1E7A80002BF0D1FB89184610374A
:102D0000BD4680BD80B586B000AFF860B96013469F
:102D1000FB80BB687B6107E07B695A1C7A611B788A
:102D2000F9681846FFF78EFFFB885A1EFA80002BC1
:102D3000F2D100BF00BF1837BD4680BD80B483B05C
:102D400000AF78607B6800221A607B6800225A60BE
:102D50007B680E4A9A607B680D4ADA607B680D4A90
:102D60001A617B680C4A5A617B680C4A9A617B68DD
:102D70000B4ADA617B680B4A1A627B680A4A5A621C
:102D800000BF0C37BD465DF8047B704767E6096AF3
:102D900085AE67BB72F36E3C3AF54FA57F520E517C
:102DA0008C68059BABD9831F19CDE05B80B4CFB095
:102DB00000AF07F59C73A3F59A73186007F59C7331
:102DC000A3F59C73196007F59C73A3F59A731B68B0
:102DD0009B68C7F8343107F59C73A3F59A731B6899
:102DE000DB68C7F8303107F59C73A3F59A731B684D
:102DF0001B69C7F82C3107F59C73A3F59A731B6800
:102E00005B69C7F8283107F59C73A3F59A731B68B3
:102E10009B69C7F8243107F59C73A3F59A731B6867
:102E2000DB69C7F8203107F59C73A3F59A731B681B
:102E30001B6AC7F81C3107F59C73A3F59A731B68CE
:102E40005B6AC7F818310023C7F8143116E0D7F8C9
:102E500014319B0007F59C72A2F59C721268134412
:102E6000196807F59C73A3F59673D7F8142143F8F6
:102E70002210D7F814310133C7F81431D7F81431C0
:102E80000F2BE4DD1023C7F8143169E0D7F81431B3
:102E90009A1E07F59C73A3F5967353F822304FEAF8
:102EA0007342D7F81431991E07F59C73A3F59673F6
:102EB00053F821304FEAF3435A40D7F81431991EA2
:102EC00007F59C73A3F5967353F821309B0A5A407B
:102ED000D7F81431D91F07F59C73A3F5967353F8EF
:102EE00021301A44D7F81431A3F10F0107F59C7370
:102EF000A3F5967353F821304FEAF311D7F8143144
:102F0000A3F10F0007F59C73A3F5967353F82030D7
:102F10004FEAB3435940D7F81431A3F10F0007F536
:102F20009C73A3F5967353F82030DB084B401A448A
:102F3000D7F81431A3F1100107F59C73A3F596732C
:102F400053F82130D11807F59C73A3F59673D7F881
:102F5000142143F82210D7F814310133C7F8143183
:102F6000D7F814313F2B91DD0023C7F8143178E0F6
:102F7000D7F824314FEAB312D7F824314FEAF323BC
:102F80005A40D7F824314FEA73635A40D7F81831C2
:102F90001A44D7F82411D7F820311940D7F8243132
:102FA000D843D7F81C3103404B401A446E49D7F838
:102FB000143151F823301A4407F59C73A3F5967326
:102FC000D7F8141153F821301344C7F81031D7F84B
:102FD00034314FEAB302D7F834314FEA73335A40F1
:102FE000D7F834314FEAB3535A40D7F83011D7F8F5
:102FF0002C315940D7F834311940D7F83001D7F87F
:103000002C3103404B401344C7F80C31D7F81C3126
:10301000C7F81831D7F82031C7F81C31D7F8243158
:10302000C7F82031D7F82821D7F810311344C7F852
:103030002431D7F82C31C7F82831D7F83031C7F808
:103040002C31D7F83431C7F83031D7F81021D7F800
:103050000C311344C7F83431D7F814310133C7F8B1
:103060001431D7F814313F2B82DD07F59C73A3F59B
:103070009A731B689A68D7F834311A4407F59C7321
:10308000A3F59A731B689A6007F59C73A3F59A736E
:103090001B68DA68D7F830311A4407F59C73A3F53A
:1030A0009A731B68DA6007F59C73A3F59A731B6823
:1030B0001A69D7F82C311A4407F59C73A3F59A7353
:1030C0001B681A6107F59C73A3F59A731B685A690C
:1030D000D7F828311A4407F59C73A3F59A731B6837
:1030E0005A6107F59C73A3F59A731B689A69D7F820
:1030F00024311A4407F59C73A3F59A731B689A61EF
:1031000007F59C73A3F59A731B68DA69D7F8203129
:103110001A4407F59C73A3F59A731B68DA6107F5E7
:103120009C73A3F59A731B681A6AD7F81C311A446A
:1031300007F59C73A3F59A731B681A6207F59C73D5
:10314000A3F59A731B685A6AD7F818311A4407F521
:103150009C73A3F59A731B685A6200BF07F59E77AC
:10316000BD465DF8047B7047B023010880B59CB074
:1031700000AFF860B9607A60BB68FB66FB681B68EB
:10318000FB65FB681A687B68DB001A44FB681A6001
:10319000FB681B68FA6D9A4204D9FB685B685A1C8D
:1031A000FB685A60FB6DDB0803F03F03BB6657E02A
:1031B000BB6EC3F140037B667A687B6E9A4201D294
:1031C0007B687B66FB6803F12802BB6E13447A6E52
:1031D000F96E18460CF01DF8BA6E7B6E1344BB6690
:1031E000FA6E7B6E1344FB667A687B6ED31A7B6043
:1031F000BB6E402B34D1FB682833BB6500233B6694
:1032000023E03B6E9B00BA6D13447B6507F110020F
:103210003B6E9B0013443B657B6D03331A783B6D1B
:103220001A707B6D9A1C3B6D013312781A707B6D9E
:103230005A1C3B6D023312781A703B6D03337A6D62
:1032400012781A703B6E01333B663B6E0F2BD8DD54
:1032500007F110031946F868FFF7A8FD0023BB66C5
:103260007B68002BA4D100BF00BF7037BD4680BD76
:1032700080B598B000AF786039607B681B68DB0868
:1032800003F03F03FB65FB6DC3F1770303F03F03DE
:103290000133BB657B6808337B6580233B7307F193
:1032A0000C0301334722002118460BF032FF7B68E4
:1032B0001A68BB6D0733D2B260333B4403F8542C19
:1032C0007B681B681A0ABB6D0633D2B260333B447D
:1032D00003F8542C7B681B681A0CBB6D0533D2B203
:1032E00060333B4403F8542C7B681B681A0EBB6D9B
:1032F0000433D2B260333B4403F8542C7B685A68E1
:10330000BB6D0333D2B260333B4403F8542C7B686B
:103310005B681A0ABB6D0233D2B260333B4403F8D8
:10332000542C7B685B681A0CBB6D0133D2B26033DE
:103330003B4403F8542C7B685B681B0ED9B207F141
:103340000C02BB6D13440A461A70BB6D03F10802F0
:1033500007F10C0319467868FFF708FF7B6DDA78F0
:103360003B681A703B6801337A6D92781A703B683B
:1033700002337A6D52781A703B6803337A6D127893
:103380001A703B6804337A6DD2791A703B68053342
:103390007A6D92791A7000BF6037BD4680BD00001B
:1033A00080B483B000AF0346FB71FA7913465B002B
:1033B0001344DB00034A134418460C37BD465DF83E
:1033C000047B7047D412002080B483B000AF034662
:1033D000FB71FB7940F2231202FB03F3034A13440F
:1033E00018460C37BD465DF8047B7047480E002038
:1033F000B0B5A0B000AFF860B9607A60FB70FB6850
:10340000002B05D0FB681B7803F00103002B01D1D2
:1034100000234FE0FB685A78BB681A70FB68D3E959
:103420000223C7E90423BB68013307F11001062218
:1034300018460BF0EEFEFB68D3E90223541C43F15F
:103440000005FB68C3E9024507F118031846FFF7BA
:1034500075FCFB6803F1100107F1180320221846E0
:10346000FFF784FEFA7807F1180379681846FFF72A
:103470007DFE97F8942007F11803D7F890101846AE
:10348000FFF774FE07F118030222D7F898101846C8
:10349000FFF76CFE07F118030722B9681846FFF71B
:1034A00065FEBB68DA1D07F1180311461846FFF7E1
:1034B000DFFE0D2318468037BD46B0BD80B483B013
:1034C00000AF78600B46FB7002E0FB78013BFB70BD
:1034D000FB78012B06D9FB78013B7A6813441B78F3
:1034E000002BF2D0FB7818460C37BD465DF8047B04
:1034F00070470000B0B5AAB000AFF860B9607A605C
:10350000FB68002B01D101233EE17B680233C7F841
:10351000A0307B6803F58B73C7F89C30D7F89C30DC
:103520000733C7F8983007F12C031846FFF706FC5D
:10353000FB6803F1100107F12C0320221846FFF766
:1035400015FE07F12C030A22D7F8A0101846FFF742
:103550000DFE7B6803F10C017B68DB781A4607F1EE
:103560002C031846FFF702FE7B6803F58A7107F10A
:103570002C0302221846FFF7F9FD07F12C0307225E
:10358000D7F89C101846FFF7F1FD07F1240207F168
:103590002C0311461846FFF76BFE07F124030622A1
:1035A000D7F8981018460BF0A4FD0346002B05D061
:1035B000FB68022283F834200023E5E0D7F89C3032
:1035C0001B7887F897304FF000024FF00003C7E9EF
:1035D0000623D7F89C30591C07F118030622184619
:1035E0000BF017FEBB68002B05D1FB68032283F8A4
:1035F00034200023C8E00023A7F8A6302BE07B6826
:10360000D979B7F8A620B8681346DB001344034401
:1036100003331B78994219D17B68197AB7F8A62031
:10362000B8681346DB001344034404331B78994203
:103630000CD1B7F8A620B9681346DB0013440B443D
:1036400002331B7897F897209A420BD0B7F8A63030
:103650000133A7F8A630BB681B88B7F8A6209A42AA
:10366000CDD300E000BFBB681B88B7F8A6209A4204
:1036700046D1BB681B880F2B05D9FB68042283F851
:103680003420002380E0D7E906234149541843F150
:103690000005FB68D3E90223944275EB030305D2CE
:1036A000FB68052283F8342000236DE0B7F8A620DC
:1036B0007B68D879B9681346DB0013440B440333A5
:1036C00002461A70B7F8A6207B68187AB9681346C4
:1036D000DB0013440B44043302461A70B7F8A620EB
:1036E000B9681346DB0013440B44023397F8972064
:1036F0001A70BB681B8801339AB2BB681A8021E03C
:103700004FF000024FF00003C7E90423B7F8A620EA
:103710001346DB001344BA681344591D07F1100324
:10372000062218460BF075FDD7E90623D7E90401F8
:10373000904271EB030305D3FB68062283F8342023
:10374000002321E0B7F8A6201346DB001344BA6833
:103750001344581DD7F89C300133062219460BF04C
:1037600058FDD7E90623F968D1E90201904271EBCF
:10377000030304D2D7E90623F968C1E90223FB68F1
:10378000012283F8342001231846A837BD46B0BD76
:10379000808D5B00F0B58FB004AFF8607B600B46A6
:1037A000FB721346BB727B681B7B03F00203002B8A
:1037B00014BF0123002387F8263097F8263083F0C2
:1037C0000103DBB2002B0CD07B681B69002B08D0F7
:1037D0007B681B691B7803F00103002B01D00123D8
:1037E00000E0002387F8253097F8253003F0010327
:1037F00087F8253097F82530002B01D00D2300E005
:10380000002387F824300A2387F8273097F82630DA
:10381000002B06D0FB68FE229A70062387F827301B
:1038200002E0FB68FD229A7097F82630002B0AD13F
:10383000FB680C3397F8442011461846FFF73EFE0C
:1038400003461A4601E097F84020FB68DA70FB68EF
:10385000FA7ADA71FB68BA7A1A72FB6800221A7176
:1038600097F82530002B06D0FB681B7943F0010345
:10387000DAB2FB681A71FB6800225A717B689A7988
:10388000FB689A717B689B790133DAB27B689A7125
:10389000FB689B783B76FB68DB787B7697F8263075
:1038A000002B13D0FB689B79BB76FB68DB79FB763A
:1038B000FB681B7A3B77FB685A7A997A09020A43BC
:1038C000DB7A1B041343DBB27B7730E0FB681B79A8
:1038D000BB76FB685B79FB76FB689B793B77FB6883
:1038E000DB797B77FB681B7ABB77FB685A7A997A1E
:1038F00009020A43DB7A1B041343DBB2FB77FB6844
:103900005A7A997A09020A43DB7A1B0413431B1281
:10391000DBB287F82030FB685A7A997A09020A43A9
:10392000DB7A1B0413431B14DBB287F8213097F8B2
:1039300027309BB2013B9AB207F1180301331146BD
:103940001846FFF7BFF90346FB82FB6803F10C0141
:10395000FB68DB781A4607F116031846FFF7D2F921
:1039600007F1160297F8483011461846FFF76AF932
:10397000F98AFB680C33FA68D2781344CAB21A7019
:10398000FB8A1B0A99B2FB6803F10C02FB68DB7827
:1039900001331344CAB21A70FA8AFB681A8097F886
:1039A0002530002B1AD07B681C69FB6803F58B75EA
:1039B000FB680C33FA68D278F9680C31F868C07883
:1039C000014497F8276007F11800029101920093D3
:1039D0003346024629462046FFF70AFDFB68DB789E
:1039E0001A4697F827309BB213449AB297F82430BE
:1039F0009BB213449BB202339BB218462C37BD4690
:103A0000F0BD80B588B004AF7860084611461A460C
:103A10000346FB700B46BB7013467B707B781846E1
:103A2000FFF7BEFCF860BA78F97897F82030029377
:103A30003B7F01933B7E0093FB687868FFF7AAFE0B
:103A4000034618461037BD4680BD80B586B004AF2A
:103A50007860084611461A460346FB700B46BB7059
:103A600013467B70BA78F9783B7D02933B7C0193D7
:103A70007B78009300237868FFF7C3FF034618465E
:103A80000837BD4680BD80B483B000AF78607B68E6
:103A90009B780133DAB27B689A7000BF0C37BD4661
:103AA0005DF8047B704780B584B000AF7860002378
:103AB000FB8107F10E031846FFF7F6F8FA897B68D9
:103AC0001A8000BF1037BD4680BD80B584B000AFFE
:103AD00078600B46FB707B681B889BB2FB8107F10B
:103AE0000E02FB7811461846FFF7ACF8FA897B689E
:103AF0001A8000BF1037BD4680BD000080B487B07B
:103B000000AF786000237B6140F277133B6125E0D2
:103B10007A693B69134401335B08FB601E49FA680C
:103B200013465B0013449B000B441B687A689A425F
:103B300003D2FB68013B3B6110E01749FA6813466A
:103B40005B0013449B000B441B687A689A4202D9BD
:103B5000FB687B6102E0FB687B6103E07A693B699B
:103B60009A42D5D30C497A6913465B0013449B00F3
:103B70000B441B687A689A4201D0002306E07A69F8
:103B800013465B0013449B00034A134418461C373A
:103B9000BD465DF8047B7047B024010880B588B04D
:103BA00000AFF860B9603B601346FB71BB68002250
:103BB0001A70BB68DB780F2B00F26C8201A252F8FE
:103BC00023F000BF053C0008053C0008633C0008EA
:103BD000C93C0008FD3C0008153D00082D3D0008CB
:103BE000453D00085D3D0008B73D0008033E000864
:103BF0005F3E0008973E0008233F0008233F00086F
:103C0000DF3F0008FB79FD2B13D1BB680222DA707D
:103C1000FB680022DA70FB68FA799A70BB681B7B3C
:103C200023F00103DAB2BB681A73F868FFF73BFFB1
:103C300027E2FB79FE2B40F02482BB680222DA7077
:103C4000FB680022DA70FB68FA799A70BB681B7B0C
:103C500043F00103DAB2BB681A73F868FFF723FF79
:103C60000FE2BB681B78002B0FD0BB685B78013379
:103C7000DAB2BB685A70B868FFF705FFBB6800226C
:103C80001A70BB680122DA7004E2FB68FA79DA7014
:103C9000BB6800221A71FB791946F868FFF715FF17
:103CA000BB681B7B03F00103002B09D0FB680022DB
:103CB0001A71FB6800225A71BB680522DA70E9E1CB
:103CC000BB680322DA70E5E1FB68FA791A71FB68D8
:103CD0001B79012B09D9B868FFF7D5FEBB68002214
:103CE0001A70BB680122DA70D4E1FB791946F868D2
:103CF000FFF7EBFEBB680422DA70CBE1FB68FA79D0
:103D00005A71FB791946F868FFF7DFFEBB68052298
:103D1000DA70BFE1FB68FA799A71FB791946F868A5
:103D2000FFF7D3FEBB680622DA70B3E1FB68FA79CD
:103D3000DA71FB791946F868FFF7C7FEBB680722FE
:103D4000DA70A7E1FB68FA791A72FB791946F8680C
:103D5000FFF7BBFEBB680822DA709BE1FB7923F01A
:103D60007F43FA68D9B2002001435172190AC9B2DF
:103D70000020014391721B0CDBB200210B43D37274
:103D8000FB791946F868FFF7A0FEBB681B7B03F0C0
:103D90000103002B0BD0FB68DB78002B03D0BB6842
:103DA0000B22DA7076E1BB680C22DA7072E1BB6834
:103DB0000922DA706EE1FB685A7A997A09020A439D
:103DC000DB7A1B0413431A46FB791B02134323F0CF
:103DD0007F42FB68D1B2002001435972110AC9B277
:103DE000002001439972120CD2B200210A43DA7208
:103DF000FB791946F868FFF768FEBB680A22DA709B
:103E000048E1FB685A7A997A09020A43DB7A1B0473
:103E100013431A46FB791B04134323F07F42FB68CC
:103E2000D1B2002001435972110AC9B200200143E6
:103E30009972120CD2B200210A43DA72FB79194648
:103E4000F868FFF742FEFB68DB78002B03D0BB6805
:103E50000B22DA701EE1BB680C22DA701AE1FB68F3
:103E600003F10C02BB681B79591CC8B2B968087110
:103E70001344FA791A70FB791946F868FFF725FEA2
:103E8000BB681A79FB68DB789A4240F0FC80BB681B
:103E90000C22DA70F7E0FB685A7A997A09020A4331
:103EA000DB7A1B0413431846FFF728FEB861BB6991
:103EB000002B02D0BB691B7900E00023FB75FB7D62
:103EC0001946F868FFF701FEFA79FB681B889BB278
:103ED000DBB29A4203D0BB680E22DA7002E0BB6804
:103EE0000D22DA70FB68FA7983F81421BB69002B84
:103EF00000F0CB80BB681A79BB699B799A4280F04D
:103F0000C480FB680C33BA6812799818BB699B7936
:103F10001A46BB681B79D31A1A4600210BF0F9F830
:103F2000B3E0BB68DB780E2B08D0FB799AB2FB6854
:103F30001B889BB21B0A9BB29A4203D0BB68022229
:103F40001A7002E0BB6801221A70FB68FA7983F8E4
:103F50001521FB681B7903F00103002B0ED0BB6811
:103F60000F22DA70BB680D225A73BB681B78022BD4
:103F700000F08D80BB6800221A7088E0BB681B6966
:103F8000002B1FD0BB681B691B6B002B13D0BB68B9
:103F90001B691A6BFB68597A987A00020143DB7A35
:103FA0001B040B431946B8689047034683F001038E
:103FB000DBB2002B06D0BB681B78022B02D0BB689B
:103FC00003221A70BB680122DA703B68002B5ED0B6
:103FD00040F22312F96838680BF01BF957E0BB6810
:103FE0005B7BC3F10D03FA681344FA7983F8162159
:103FF000BB685B7B013BDAB2BB685A73BB685B7B17
:10400000002B46D1BB681869BB685B69FA68194622
:10401000FFF770FA0346FB77FB7F83F00103DBB207
:10402000002B17D0BB681B691B6B002B12D0BB6821
:104030001B691A6BFB68597A987A00020143DB7A94
:104040001B040B431946B86890470346002B01D068
:104050000123FB77FB7F002B03D0BB6801221A7082
:1040600002E0BB6803221A70BB680122DA703B6869
:10407000002B0ED040F22312F96838680BF0C9F813
:1040800007E000BF06E000BF04E000BF02E000BFA1
:1040900000E000BFBB681B78012B10D1FB689A7948
:1040A000BB685A71BB681B89002B02D1BB68002218
:1040B0005A81BB681B8901339AB2BB681A813B687D
:1040C000002B03D0FB68DA783B68DA70BB6A002B00
:1040D0001AD0BB68DA78BB6ADA70BB681A79BB6A37
:1040E0001A71BB685B790133DAB2BB6A5A71BB687B
:1040F0001A89BB6A1A81BB689B781A46BB6A5A81C7
:10410000BB681A7BBB6A1A73BB6800229A70BB68D3
:104110001B78022B10D13B68002B0DD0FB6893F865
:1041200014311AB2FB6893F815311B021BB213430A
:104130001BB29AB23B681A80BB681B7818462037BE
:10414000BD4680BD90B587B002AFBA607B600346C4
:10415000FB730B46BB73FB7B1846FFF735F9044630
:10416000FB7B1846FFF71CF90146BA7B7B6800937E
:10417000BB682046FFF712FD034618461437BD46BC
:1041800090BD80B588B000AFBA607B600346FB731A
:104190000B46BB73B97BF87B7B68BA68FFF7D2FF2D
:1041A0000346FB77FB7F022B02D0FB7F032B20D142
:1041B000FB7B1846FFF708F9B861FB7B1846FFF751
:1041C000EFF878617869FFF75EFC7B6900221A706E
:1041D0007B690122DA70BB7BFD2B08D17B6902224F
:1041E000DA70BB690022DA70B869FFF75CFC002363
:1041F00000E0FB7F18462037BD4680BD80B594B0F7
:1042000002AF3A62FB6187ED060AC7ED050A87ED4A
:10421000041AC7ED031A87ED022AC7ED012A0346E7
:1042200087F827300B4687F82630FB69FB62BB69AD
:104230003B637B697B633B69BB63FB68FB63BB6878
:104240003B647B687B643B6A0C3307F12C011C22C6
:1042500018460AF0DEFF3B6A002242F01E025A7244
:1042600000229A720022DA7297F8262097F8271017
:10427000272301931C2300931C23386AFFF7E5FBD7
:10428000034618464837BD4680BD80B584B000AFB0
:10429000BA607B600346FB730B46BB737B681A688E
:1042A0007B68D3ED017A7B6893ED027A7B68D3ED6E
:1042B000036A7B6893ED046A7B68D3ED055A7B68DB
:1042C00093ED065AB97BF87BF0EE452AB0EE652AED
:1042D000F0EE461AB0EE661AF0EE470AB0EE670A44
:1042E0001346BA68FFF78AFF034618461037BD46E3
:1042F00080BD80B584B000AF786039607B68DB78C2
:104300001E2B28BF1E23FB731E22002138680AF0D3
:1043100000FF7B680C33FA7B194638680AF079FF96
:1043200000BF1037BD4680BD80B58EB002AF3A6188
:1043300087ED030AC7ED020A1A4687ED011AC7ED99
:10434000001A0346FB750B46BB751346BB82FB6820
:10435000FB61BB683B627B687B623B68BB62BB8A7C
:10436000BB853B8FFB853B690C3307F11C01142295
:1043700018460AF04EFF3B69002242F04A025A7288
:1043800000229A720022DA72BA7DF97D1423019319
:104390001423009314233869FFF757FB034618468C
:1043A0003037BD4680BD80B584B000AF78603960DD
:1043B0007B68DB78212B28BF2123FB73212200217E
:1043C00038680AF0A6FE7B680C33FA7B1946386819
:1043D0000AF01FFF00BF1037BD4680BD80B483B018
:1043E00000AF78600B46FB701346BB70074A7B68D2
:1043F0001360064AFB781371044ABB78537100BFFF
:104400000C37BD465DF8047B704700BF400D0020AF
:1044100080B500AF044B1B684FF480720349184607
:1044200005F0E8FF00BF80BD400D0020480D0020D2
:1044300080B483B000AF7860064B1B687A689A42FC
:1044400002D1054B00221A7000BF0C37BD465DF843
:10445000047B7047400D0020BA09002080B584B06D
:1044600000AF78600B467B80134B1B687A689A42DA
:104470001DD10023FB8110E0FB89104AD15C104B59
:10448000104A0020FFF77DFE0346002B02D00D48A6
:1044900000F08CF8FB890133FB81FA897B889A4212
:1044A000EAD34FF480720549786805F0A3FF00BF96
:1044B0001037BD4680BD00BF400D0020480D0020D4
:1044C000040C00201C0C002080B582B000AF786086
:1044D000074B1B687A689A4205D14FF480720549F0
:1044E000786805F087FF00BF0837BD4680BD00BF74
:1044F000400D0020480D002080B58CB000AF87ED46
:10450000030AC7ED020A87ED011A01F085FD034693
:104510007B61FB68BB61BB68FB617B683B624FF002
:1045200000037B624FF00003BB624FF00003FB62AD
:1045300007F11403054A01210120FFF7A6FE044BF1
:1045400001221A7000BF3037BD4680BDBC09002073
:10455000DF0A002080B586B002AF87ED030AC7ED01
:10456000020A87ED011AD7ED027AFDEEE77A17EE1F
:10457000903A1BB200220092DFED091A97ED011A62
:10458000D7ED030A9FED060A064A01210120FFF735
:10459000CBFE054B01221A7000BF1037BD4680BD0F
:1045A00000000000E00A0020030C002080B594B059
:1045B00000AF78607B685A7A997A09020A43DB7AFD
:1045C0001B041343452B02D04C2B29D049E007F1A3
:1045D000300319467868FFF78CFEB7F9303007EEE4
:1045E000903AF8EEE77AB7F9323007EE103AB8EEC3
:1045F000C77AB7F9343006EE903AF8EEE66AB7F9C2
:10460000363006EE103AB8EEC66AF0EE461AB0EE54
:10461000661AF0EE470AB0EE670A00F00FFC20E0E1
:1046200007F10C0319467868FFF7BDFE3B8DB92BE7
:1046300016D03B8DB3F5C87F10D1D7ED037AB7EE16
:10464000007AF4EE477AF1EE10FA03D1FF2000F081
:10465000D5F905E0FF2000F05BFB01E03B8DB72BB7
:1046600000BF00BF5037BD4680BD000080B483B09E
:1046700000AF0023FB7151E0FA792D4913465B002E
:104680001344DB000B44FA791A70FA79284913466F
:104690005B001344DB000B44043300221A60FA79F8
:1046A000234913465B001344DB000B44083300220C
:1046B0001A60FA791E4913465B001344DB000B4471
:1046C0000C3300221A70FA79194913465B0013441F
:1046D000DB000B440D3300221A70FA79144913469B
:1046E0005B001344DB000B440E3300221A70FA798E
:1046F0000F4913465B001344DB000B440F330022C9
:104700001A70FA790A4913465B001344DB000B4424
:10471000143300221A70FB790133FB71FB79052BEE
:10472000AAD900BF00BF0C37BD465DF8047B7047B7
:104730003413002080B485B000AF0346B9607A60BE
:10474000FB73FA7B0C4913465B001344DB000B44FC
:104750000433BA681A60FA7B074913465B001344B6
:10476000DB000B4408337A681A6000BF1437BD467B
:104770005DF8047B704700BF3413002090B585B00E
:1047800000AF0346FB71FB79FF2B40F097800023BD
:10479000FB738EE0FA7B974913465B001344DB0002
:1047A0000B4404331C68FA7B924913465B001344A4
:1047B000DB000B4408331B68DBB2184600F01AFB21
:1047C00003461946204604F0EDFDFA7B894913465D
:1047D0005B001344DB000B4408331B68DBB2184654
:1047E00000F008FB0346002B0DD1FA7B81491346EC
:1047F0005B001344DB000B4404331B681B6840F26E
:10480000DC525A6348E0FA7B7A4913465B00134452
:10481000DB000B4408331B68DBB2184600F0EAFAF1
:104820000346042B0DD1FA7B724913465B001344F7
:10483000DB000B4404331B681A6840F2DC539363BB
:104840002AE0FA7B6B4913465B001344DB000B4400
:1048500008331B68DBB2184600F0CCFA0346082B7D
:104860000DD1FA7B634913465B001344DB000B4414
:1048700004331B681A6840F2DC53D3630CE0FA7B04
:104880005C4913465B001344DB000B4404331B6894
:104890001A6840F2DC531364FA7B564913465B00F6
:1048A0001344DB000B440E3301221A70FB7B0133EF
:1048B000FB73FB7B052B7FF66DAF8FE0FB79062B3F
:1048C00000F28C80FA794B4913465B001344DB00FD
:1048D0000B4404331C68FA79464913465B001344C1
:1048E000DB000B4408331B68DBB2184600F082FA89
:1048F00003461946204604F055FDFA793D49134612
:104900005B001344DB000B4408331B68DBB2184622
:1049100000F070FA0346002B0DD1FA7935491346A1
:104920005B001344DB000B4404331B681B6840F23C
:10493000DC525A6348E0FA792E4913465B0013446F
:10494000DB000B4408331B68DBB2184600F052FA58
:104950000346042B0DD1FA79264913465B00134414
:10496000DB000B4404331B681A6840F2DC5393638A
:104970002AE0FA791F4913465B001344DB000B441D
:1049800008331B68DBB2184600F034FA0346082BE4
:104990000DD1FA79174913465B001344DB000B4431
:1049A00004331B681A6840F2DC53D3630CE0FA79D5
:1049B000104913465B001344DB000B4404331B68AF
:1049C0001A6840F2DC531364FA790A4913465B0013
:1049D0001344DB000B440E3301221A7042F21070B4
:1049E00001F026FB044B01221A7000BF1437BD46AC
:1049F00090BD00BF34130020C413002090B585B0D3
:104A000000AF0346FB71FB79FF2B40F0B2805E4B99
:104A10001B78DBB283F00103DBB2002B06D0FF2052
:104A2000FFF7ACFE594B01221A70A9E0574B1B78D7
:104A3000DBB283F00103DBB2002B00F0A180002386
:104A4000FB738EE0FA7B524913465B001344DB0094
:104A50000B4404331C68FA7B4D4913465B00134436
:104A6000DB000B4408331B68DBB2184600F0C2F9C8
:104A700003461946204604F095FCFA7B4449134648
:104A80005B001344DB000B4408331B68DBB21846A1
:104A900000F0B0F90346002B0DD1FA7B3C491346D8
:104AA0005B001344DB000B4404331B681B6840F2BB
:104AB000DC525A6348E0FA7B354913465B001344E5
:104AC000DB000B4408331B68DBB2184600F092F998
:104AD0000346042B0DD1FA7B2D4913465B0013448A
:104AE000DB000B4404331B681A6840F2DC53936309
:104AF0002AE0FA7B264913465B001344DB000B4493
:104B000008331B68DBB2184600F074F90346082B23
:104B10000DD1FA7B1E4913465B001344DB000B44A6
:104B200004331B681A6840F2DC53D3630CE0FA7B51
:104B3000174913465B001344DB000B4404331B6826
:104B40001A6840F2DC531364FA7B114913465B0088
:104B50001344DB000B440E3301221A70FB7B01333C
:104B6000FB73FB7B052B7FF66DAF084B01221A70A0
:104B700006E0FB79062B03D8FB791846FFF7FEFD0C
:104B800000BF1437BD4690BDC4130020C5130020DC
:104B90003413002080B582B000AF03460A46FB7193
:104BA0001346BB80374B1B78DBB2002B66D0FA79FB
:104BB000354913465B001344DB000B4408331B6884
:104BC000DBB2184600F016F90346002B0DD1FA7936
:104BD0002D4913465B001344DB000B4404331B6870
:104BE0001B68B7F904205A6348E0FA79264913464E
:104BF0005B001344DB000B4408331B68DBB2184630
:104C000000F0F8F80346042B0DD1FA791E4913463B
:104C10005B001344DB000B4404331B681A68B7F9CC
:104C2000043093632AE0FA79174913465B00134472
:104C3000DB000B4408331B68DBB2184600F0DAF8DF
:104C40000346082B0DD1FA790F4913465B00134434
:104C5000DB000B4404331B681A68B7F90430D363D4
:104C60000CE0FA79084913465B001344DB000B445F
:104C700004331B681A68B7F90430136400BF08379F
:104C8000BD4680BDC51300203413002080B584B01C
:104C900000AF78600023FB730DE0FB7B5B007A685C
:104CA0001344B3F90020FB7B11461846FFF772FF4F
:104CB000FB7B0133FB73FB7B052BEED900BF00BFF1
:104CC0001037BD4680BD80B584B000AF0346FB7190
:104CD000FB79FF2B0FD10023FB7308E0FB7B40F235
:104CE000DC511846FFF756FFFB7B0133FB73FB7B60
:104CF000052BF3D908E0FB79062B05D8FB7940F2A8
:104D0000DC511846FFF746FF00BF1037BD4680BD97
:104D100090B585B000AF0346FB71FB79FF2B35D111
:104D20000023FB732BE0FB7B1846FFF7CCFFFA7BDD
:104D30002E4913465B001344DB000B4404331C680C
:104D4000FA7B2A4913465B001344DB000B4408330B
:104D50001B68DBB2184600F04DF8034619462046A2
:104D600004F0E8FBFA7B214913465B001344DB00A7
:104D70000B440E3300221A70FB7B0133FB73FB7B69
:104D8000052BD0D91A4B00221A702BE0FB79062B89
:104D900028D8FB791846FFF796FFFA79134913468E
:104DA0005B001344DB000B4404331C68FA790F49A1
:104DB00013465B001344DB000B4408331B68DBB273
:104DC000184600F017F803461946204604F0B2FBD7
:104DD000FA79064913465B001344DB000B440E339B
:104DE00000221A7000BF1437BD4690BD3413002056
:104DF000C513002080B483B000AF0346FB71FB797C
:104E0000013B032B12D801A252F823F01D4E0008DB
:104E1000214E0008254E0008294E0008002306E018
:104E2000042304E0082302E00C2300E000231846DA
:104E30000C37BD465DF8047B704700BF80B588B075
:104E400002AF87ED030AC7ED020A87ED011AC7ED2D
:104E5000001A06210F48FDF7F5F90E4A7B689360AA
:104E60000D4BD3ED007A0D4B01930D4B00930523B1
:104E70000C4AB0EE670A07490B48FDF79CF97861C8
:104E80007B69002B02D10548FFF700FF00BF1837F0
:104E9000BD4680BDAC0600208802002058020020DC
:104EA000C406002078010020B404002080B586B03C
:104EB00004AF78604FF0FF330293012301937B68C6
:104EC000009301237522D021064802F0C7F903465A
:104ED000002B0CBF01230023DBB218460837BD4668
:104EE00080BD00BFE006002080B584B002AFFB1D8E
:104EF0001846FFF7DBFF034683F00103DBB2002B0C
:104F000002D1FB79682B01D0002313E06B23BB8017
:104F10003A1D4FF0FF3300930223D021074802F0DF
:104F20009FF80346002B01D0002303E0642001F02A
:104F30007FF8012318460837BD4680BDE0060020F3
:104F400080B52DED028B96B004AF87ED050A07F111
:104F5000280300221A605A609A604FF0FF330293D0
:104F60000E23019307F11803009301233B22D02164
:104F7000064802F073F90346002B09D007F1340309
:104F800007F1280207CA83E8070092E1E006002043
:104F90003B7E1B021AB27B7E1BB213431AB2D24B6A
:104FA0001A80BB7E1B021AB2FB7E1BB213431AB2DD
:104FB000CE4B1A803B7F1B021AB27B7F1BB213437E
:104FC0001AB2CB4B1A8097F820301B021AB297F80E
:104FD00021301BB213431AB2C64B1A8097F8223005
:104FE0001B021AB297F823301BB213431AB2C24BFA
:104FF0001A8097F824301B021AB297F825301BB29A
:1050000013431AB2BD4B1A80B74BB3F9003007EE09
:10501000903AB8EEE77ADFEDBA6AC7EE267AB94B76
:10502000C3ED007AB14BB3F9003007EE903AB8EE19
:10503000E77ADFEDB36AC7EE267AB34BC3ED007AA9
:10504000AB4BB3F9003007EE903AB8EEE77ADFEDFC
:10505000AC6AC7EE267AAD4BC3ED007AA54BB3F927
:10506000003007EE903AB8EEE77ADFEDA96AC7EEB6
:10507000267AA84BC3ED007A9F4BB3F9003007EEB8
:10508000903AB8EEE77ADFEDA26AC7EE267AA24B35
:10509000C3ED007A994BB3F9003007EE903AB8EEC1
:1050A000E77ADFED9B6AC7EE267A9C4BC3ED007A68
:1050B000954BD3ED007AB1EE678A924B93ED007A6F
:1050C000904BD3ED007A27EE277A904BD3ED006A10
:1050D0008E4BD3ED007A66EEA77A77EE277AB0EEA4
:1050E000670A0BF08FFFF0EE407AF0EE670AB0EE41
:1050F000480A0BF085FFF0EE407A9FED897A67EE63
:10510000877A17EE900AFBF71FFA75A3D3E90023FD
:10511000FBF79CFB02460B4610461946FBF744FD85
:1051200003467B647B4B93ED007AD7ED057A27EE3F
:10513000277A7C4BD3ED007A77EE277A9FED7A7A47
:1051400027EE877ADFED787AF7EE006A76EEE76A87
:10515000D7ED117A66EEA77A77EE277A714BC3ED19
:10516000007A704BD3ED007A9FED707A67EE877A04
:10517000B0EE670A0BF068FFB0EE407ADFED6B6AC5
:10518000C7EE267AC7ED0B7A5E4BD3ED007AB1EE0F
:10519000678A5D4B93ED007A5B4BD3ED007A27EE87
:1051A000277A5A4BD3ED006A584BD3ED007A66EE5E
:1051B000A77A77EE277AB0EE670A0BF023FFF0EEBE
:1051C000407AF0EE670AB0EE480A0BF019FFF0EEF5
:1051D000407A9FED537A67EE877A17EE900AFBF7D5
:1051E000B3F93FA3D3E90023FBF730FB02460B469C
:1051F00010461946FBF7D8FC03463B64464B93ED3B
:10520000007AD7ED057A27EE277A494BD3ED007A5D
:1052100077EE277A9FED447A27EE877ADFED427AA0
:10522000F7EE006A76EEE76AD7ED107A66EEA77AB7
:1052300077EE277A3E4BC3ED007A3D4BD3ED007AF3
:105240009FED3A7A67EE877AB0EE670A0BF0FCFEC4
:10525000B0EE407ADFED356AC7EE267AC7ED0A7AFE
:105260002E4B93ED007AD7ED057A27EE277A314B56
:10527000D3ED007A77EE277A2E4BC3ED007A2D4BD3
:10528000D3ED007A9FED297A67EE877AB0EE670A50
:105290000BF0DAFEB0EE407ADFED246AC7EE267A34
:1052A000C7ED0C7A07F1340307F1280207CA83E837
:1052B0000700796BBA6BFB6B06EE901A07EE102AAB
:1052C00007EE903AB0EE660AF0EE470AB0EE671AC3
:1052D0004837BD46BDEC028B80BD00BFAFF30080F8
:1052E000182D4454FB210940C6130020C813002088
:1052F000CA130020CC130020CE130020D0130020AE
:1053000000008046D4130020D8130020DC130020B6
:1053100000000343E0130020E4130020E813002002
:1053200000003443EC1300208FC2753F0000C842D8
:10533000F0130020F413002080B483B000AF786035
:105340003960064A7B681360054A3B68136000BFFA
:105350000C37BD465DF8047B704700BFF813002092
:10536000FC13002080B500AF354B1B6800211846A8
:1053700004F018F8642000F05BFE324B1B681846FE
:1053800003F096F950211D2000F086F803461A46D6
:105390002D4B1A8060211D2000F07EF803461A462E
:1053A0002A4B1A8090211D2000F076F803461A46F9
:1053B000274B1A80A0211D2000F06EF803461A46E4
:1053C000244B1A80204B1B885B089AB21E4B1A8014
:1053D0001D4B1B889B021BB203F480631AB21B4B4C
:1053E0001B889B099BB21BB213431BB29AB21A4B88
:1053F0001A80164B1B8803F03F039AB2174B1A8092
:10540000134B1B889B011BB203F47C631AB2114B34
:105410001B881BB203F03F031BB213431BB29AB2AB
:105420000A4B1A800B4B1B889B099AB2084B1A80B7
:10543000074B1B889B099AB2064B1A8000BF80BDA0
:10544000FC130020F8130020041400200614002090
:10545000081400200A1400200C1400200E14002050
:1054600080B582B000AF0A4A3B1D12681146198010
:105470000233120C1A70074B1868391D4FF0FF33B6
:10548000032203F09EF900BF0837BD4680BD00BF70
:1054900070230108F813002080B584B000AF0346E4
:1054A0000A46FB711346BB71FB793B73BB797B7377
:1054B00000233B81FFF7D4FF1B4B186807F10C0159
:1054C0004FF0FF33022203F07CF9174B1B680022D8
:1054D0001A61154B1B6801225A61134B1B68184651
:1054E00003F0E6F8104B186807F108014FF0FF339E
:1054F000022203F0AAFA0C4B1B6800221A610A4B25
:105500001B6800225A61084B1B68184603F0D0F84C
:105510003B7A1B021AB27B7A1BB213431BB29BB2BB
:1055200018461037BD4680BDF813002080B582B004
:1055300000AF44F20F03BB8000233B80FFF790FFD6
:105540001C4B1868391D4FF0FF33022203F039F964
:10555000232000F06DFD174B1B6800221A61154BCC
:105560001B6801225A61134B1B68184603F0A0F810
:10557000104B186839464FF0FF33022203F065FAEA
:105580000C4B1B6800221A610A4B1B6800225A61EF
:10559000084B1B68184603F08BF83B781B021AB2C5
:1055A0007B781BB213431BB29BB218460837BD462B
:1055B00080BD00BFF813002080B582B000AF42F27A
:1055C0000F03BB8000233B801C4B1868391D4FF034
:1055D000FF33022203F0F5F8232000F029FD174BDA
:1055E0001B6800221A61154B1B6801225A61134B7C
:1055F0001B68184603F05CF8104B186839464FF0EA
:10560000FF33022203F021FA0C4B1B6800221A61BF
:105610000A4B1B6800225A61084B1B68184603F0AE
:1056200047F83B781B021AB27B781BB213431BB2BC
:105630009BB218460837BD4680BD00BFF813002056
:1056400080B592B000AF07F1100300221A605A60D3
:105650009A60FFF76BFF03461A46544B1A80FFF718
:10566000ABFF03461A46524B1A80524B1B88DB0095
:1056700003F59E437B644E4B1B881A467B6CD31A02
:105680003B644D4B1B8832333A6C02FB03F39B1295
:10569000C833FB63494B1B889A00494B1B88A3F511
:1056A0000073396C01FB03F31B131344BB63454BBD
:1056B0001B881A46444B1B8819463B6C01FB03F3BD
:1056C0009B12134403F5C0437B63384B1B88A3F53F
:1056D000E0537A6B02FB03F39A13BB6BD31A3B6361
:1056E0003A6B13469B0013445B005B1103F6C41333
:1056F000FB62FB6B07EE903AB8EEE77AF2EE046AD3
:10570000C7EE267AC7ED047AFB6A07EE903AB8EE48
:10571000E77AF2EE046AC7EE267AC7ED057A2B4BDC
:10572000D3ED007A9FED2A7A77EEC77AC7ED0A7A31
:10573000D7ED0A7A9FED277A67EE877AB0EE670A8F
:105740000BF082FCB0EE407ADFED226AC7EE267ADB
:10575000C7ED0A7AD7ED0A7AF5EEC07AF1EE10FAC3
:1057600006DDD7ED0A7A9FED1C7A67EE877A01E0B5
:10577000DFED1A7AC7ED067A07F11C0307F1100274
:1057800007CA83E80700F9693A6A7B6A06EE901A4D
:1057900007EE102A07EE903AB0EE660AF0EE470ADE
:1057A000B0EE671A4837BD4680BD00BF0014002028
:1057B000021400200C1400200E14002006140020F7
:1057C0000A140020041400200814002010140020E3
:1057D00000407C440000C8425C8F823F0000000013
:1057E00080B582B000AF00237B60124B5B6C114A26
:1057F00043F4804353640F4B5B6C03F480437B6042
:105800007B6800233B600B4B1B6C0A4A43F08053C0
:105810001364084B1B6C03F080533B603B68002211
:105820000F216FF0010000F002FD00BF0837BD46F8
:1058300080BD00BF0038024080B58AB000AF7860FC
:1058400007F1140300221A605A609A60DA601A6144
:105850007B681B68194A93422BD100233B61184B8C
:105860001B6B174A43F002031363154B1B6B03F0CA
:1058700002033B613B69C0237B611223BB610023B0
:10588000FB6103233B6204237B6207F11403194687
:105890000C4801F005F90023FB60094B1B6C084A1A
:1058A00043F400131364064B1B6C03F40013FB60FA
:1058B000FB6800BF2837BD4680BD00BF00540040D4
:1058C000003802400004024080B58AB000AF786022
:1058D00007F1140300221A605A609A60DA601A61B4
:1058E0007B681B68194A93422BD100233B61184BFC
:1058F0005B6C174A43F480535364154B5B6C03F4A1
:1059000080533B613B690023FB60114B1B6B104ACA
:1059100043F0010313630E4B1B6B03F00103FB60A9
:10592000FB68E0237B610223BB610023FB6103234F
:105930003B6205237B6207F114031946054801F019
:10594000AFF800BF2837BD4680BD00BF0030014022
:10595000003802400000024080B586B000AF786099
:105960007B681B682C4A93420ED100237B612B4B32
:105970005B6C2A4A43F001035364284B5B6C03F0D1
:1059800001037B617B6942E07B681B68B3F1804F58
:105990000ED100233B61214B1B6C204A43F00103D5
:1059A00013641E4B1B6C03F001033B613B692EE04B
:1059B0007B681B681A4A934216D10023FB60174B81
:1059C0001B6C164A43F002031364144B1B6C03F068
:1059D0000203FB60FB68002205211D2000F027FC6C
:1059E0001D2000F040FC12E07B681B680D4A9342CA
:1059F0000DD10023BB60094B5B6C084A43F00203E6
:105A00005364064B5B6C03F00203BB60BB6800BFD2
:105A10001837BD4680BD00BF00000140003802407D
:105A2000000400400004014080B58AB000AF7860F7
:105A300007F1140300221A605A609A60DA601A6152
:105A40007B681B68374A93421FD100233B61364B6A
:105A50001B6B354A43F001031363334B1B6B03F09D
:105A600001033B613B694FF470637B610223BB61BF
:105A70000023FB6100233B6201237B6207F11403D7
:105A800019462A4801F00CF847E07B681B68B3F11F
:105A9000804F1ED10023FB60234B1B6B224A43F037
:105AA00001031363204B1B6B03F00103FB60FB68D6
:105AB00001237B610223BB610023FB6100233B6266
:105AC00001237B6207F114031946184800F0E8FF30
:105AD00023E07B681B68164A93421ED10023BB60FB
